{
  "contractName": "Ownable",
  "abi": [
    {
      "inputs": [],
      "stateMutability": "nonpayable",
      "type": "constructor"
    },
    {
      "inputs": [],
      "name": "isOwner",
      "outputs": [
        {
          "internalType": "bool",
          "name": "",
          "type": "bool"
        }
      ],
      "stateMutability": "view",
      "type": "function"
    }
  ],
  "bytecode": "0x6080604052348015600f57600080fd5b50336000806101000a81548173ffffffffffffffffffffffffffffffffffffffff021916908373ffffffffffffffffffffffffffffffffffffffff16021790555060d88061005e6000396000f3fe6080604052348015600f57600080fd5b506004361060285760003560e01c80638f32d59b14602d575b600080fd5b6033604b565b60405180821515815260200191505060405180910390f35b60008060009054906101000a900473ffffffffffffffffffffffffffffffffffffffff1673ffffffffffffffffffffffffffffffffffffffff163373ffffffffffffffffffffffffffffffffffffffff161490509056fea2646970667358221220c74c5d5d21794986c70e1a48ca768d7648c46796faf643866a0778eecd071aa364736f6c634300060c0033",
  "source": "pragma solidity ^0.6.0;\n\ncontract Ownable {\n    address payable _owner;\n    \n    constructor() public {\n        _owner = msg.sender;\n    }\n    \n    modifier onlyOwner() {\n        require(isOwner(), \"You are not the owner\");\n        _;\n    }\n    \n    function isOwner() public view returns(bool) {\n        return (msg.sender == _owner);\n    }\n}",
  "sourcePath": "/Users/yohei_goto/StudySpace/EthereumPlace/supply_chain_example/contracts/Ownable.sol",
  "compiler": {
    "name": "solc",
    "version": "0.6.12+commit.27d51765.Emscripten.clang"
  },
  "schemaVersion": "3.0.20",
  "updatedAt": "2020-11-23T11:04:41.610Z",
  "devdoc": {
    "kind": "dev",
    "methods": {},
    "version": 1
  },
  "userdoc": {
    "kind": "user",
    "methods": {},
    "version": 1
  }
}